S01000004C454420435542452E7372656300
S11300000C942A000C9447000C9447000C9447006D
S11300100C9447000C9447000C9447000C94470040
S11300200C9447000C9447000C9447000C94470030
S11300300C9447000C9447000C9447000C94470020
S11300400C9447000C9447000C9447000C94470010
S11300500C94470011241FBECFE5D8E0DEBFCDBF0E
S113006010E0A0E6B0E0E2EBF5E002C005900D92EE
S1130070A436B107D9F720E0A4E6B0E001C01D9290
S1130080AE37B207E1F70E94C9020C94D7020C9470
S11300900000DC9ADD9ADD98DC980895DD9ADD98FD
S11300A00895CF93DF93EC018091680090916900EB
S11300B0C817D90721F4209709F442C046C0C817CD
S11300C0D9072CF484E08BBB84E48BBB0AC0823058
S11300D091053CF08830910521F08C179D0704F1BF
S11300E034C081E090E090936900809368000E949E
S11300F0490080916800909169008C179D072CF548
S11301000E944E0020916800309169002F5F3F4F9C
S113011030936900209368002C173D078CF315C0B9
S11301200E944E0020916800309169002F5F3F4F7C
S113013030936900209368002C173D078CF305C0A9
S11301401C161D060CF4BECFCCCFDF91CF910895C1
S1130150DB9ADB980895D99A0E94A800D99808954B
S1130160CF93DF9384E48BBB15BA0E94AB00C7E046
S1130170D0E00E94A8002197E1F7DF91CF91089584
S11301803F924F925F926F927F928F929F92AF9223
S1130190BF92CF92DF92EF92FF920F931F93CF9370
S11301A0DF93181619060CF0E0C05C01CC24C3944C
S11301B0D12C01E010E0E12CF12C77247394812CF4
S11301C0CFEFD1E80F2EF9E99F2EF02D6894332458
S11301D031F8412C0F2EF7E05F2EF02D612C109298
S11301E0790010927800709262008092630094C04B
S11301F080916200909163008017910709F048C0D4
S113020010926700109266008091620090916300E2
S11302100E945100C5BB0E94AB00D5BB0E94A80040
S11302200E94A80095BA0E94A80095BA0E94A8004E
S1130230D5BB0E94A8000E94A800C5BB0E94A800CC
S11302400E94B0008091660090916700019690939F
S11302506700809366004997BCF280916200909198
S1130260630001968930910529F09093630080938F
S1130270620052C0709262008092630080917800A4
S1130280909179000196909379008093780044C00E
S11302901092670010926600809162009091630052
S11302A00E945100C5BB0E94AB00D5BB0E94A800B0
S11302B00E94A8000E94A8000E94A8000E94A80012
S11302C00E94A800C5BB0E94A8000E94B0008091B3
S11302D06600909167000196909367008093660092
S11302E04997D4F28091620090916300019689301D
S11302F0910529F090936300809362000DC0709281
S11303006200809263008091780090917900019658
S1130310909379008093780080917800909179008F
S1130320803691050CF464CF81E0C816D10431F411
S11303300F5F1F4F0830110589F40CC082E0C81606
S1130340D10461F4015011090130110539F4C72CAD
S1130350D82C04C0C32CD42C052D162D8FEFE81AED
S1130360F80AEA14FB0409F03ACFDF91CF911F9108
S11303700F91FF90EF90DF90CF90BF90AF909F9040
S11303808F907F906F905F904F903F900895EF9281
S1130390FF921F93CF93DF93809164009091650047
S11303A018161906CCF5C0E0D0E01FEFEE24E39454
S11303B0F12C80916200909163000E94510015BB62
S11303C00E94AB000E94A8000E94A8000E94A800FE
S11303D015BA0E94A8000E94A8000E94A8000E94CA
S11303E0A8000E94B0008091620090916300019681
S11303F08930910529F0909363008093620004C0D2
S1130400F0926300E09262002196809164009091E2
S11304106500C817D9076CF2DF91CF911F91FF9047
S1130420EF900895FF920F931F93CF93DF938091E2
S11304306000909161002091640030916500821BFE
S1130440930B181619060CF040C000E010E0FF24CE
S1130450FA94C1E0D0E080916200909163000E9420
S1130460510015BA0E94AB000E94A8000E94A80087
S11304700E94A800F5BA0E94A8000E94A8000E9449
S1130480A8000E94A8000E94B00080916200909190
S1130490630001968930910529F09093630080935D
S11304A0620004C0D0936300C09362000F5F1F4FCB
S11304B0809160009091610020916400309165000A
S11304C0821B930B0817190734F2DF91CF911F9108
S11304D00F91FF9008952091600030916100809108
S11304E064009091650082179307A4F40E94C701E9
S11304F00E94120280916400909165000596909389
S1130500650080936400209160003091610082173F
S1130510930764F380916A0090916B000197909324
S11305206B0080936A0080916400909165001816B6
S1130530190684F40E94C7010E941202809164008B
S11305409091650005979093650080936400181658
S1130550190684F380917C0090917D00019690931C
S11305607D0080937C0020916A0030916B00232BE6
S113057031F42FEF30E030936B0020936A008F3F0B
S1130580910531F481E090E090937D0080937C00AC
S113059008958FEF8ABB84BB84E48BBB0E946B02FB
S11305A086E190E00E94C00080E090E00895F89415
S10505B0FFCF77
S10705B2F40101004B
S9030000FC
