S01000004C454420435542452E7372656300
S11300000C942A000C9447000C9447000C9447006D
S11300100C9447000C9447000C9447000C94470040
S11300200C9447000C9447000C9447000C94470030
S11300300C9447000C9447000C9447000C94470020
S11300400C9447000C9447000C9447000C94470010
S11300500C94470011241FBECFE5D8E0DEBFCDBF0E
S113006010E0A0E6B0E0EEE1F5E002C005900D92EC
S1130070A436B107D9F720E0A4E6B0E001C01D9290
S1130080AE37B207E1F70E9481020C948D020C9402
S11300900000DC9ADD9ADD98DC980895DD9ADD98FD
S11300A00895CF93DF9320916800309169008217FF
S11300B0930719F4009771F045C08217930754F41D
S11300C024E02BBB24E42BBB21E030E03093690017
S11300D020936800EC01809168009091690082305F
S11300E0910514F00897D9F481E090E090936900A9
S11300F0809368000E944900809168009091690093
S11301008C179D07FCF40E944E008091680090912A
S1130110690001969093690080936800EDCF809107
S11301206800909169008C179D0764F40E944E004A
S11301308091680090916900019690936900809382
S11301406800EDCFDF91CF910895DB9ADB98089595
S1130150D99A0E94A500D9980895CF93DF9384E497
S11301608BBB15BA0E94A800C7E0D0E00E94A5008E
S11301702197E1F7DF91CF9108957F928F929F921B
S1130180AF92BF92CF92DF92EF92FF920F931F93A1
S1130190CF93DF936C0101E010E0C1E0D0E0E12CEB
S11301A0F12CAA24A394B12C99249A9491E8892E31
S11301B029E9722EEC14FD040CF0AFC01092790002
S11301C010927800B0926300A0926200809178004F
S11301D090917900803691050CF087C0809162007F
S11301E09091630010926700109266008C179D072F
S11301F0C1F5209166003091670080916200909172
S113020063002931310524F50E94510095BA0E94FA
S1130210A80085BA0E94A5000E94A50075BA0E9494
S1130220A50075BA0E94A50085BA0E94A5000E9487
S1130230A50095BA0E94A5000E94AD0080916600B9
S11302409091670001969093670080936600D1CFE8
S1130250019689309105D9F19093630080936200EF
S1130260B5CF809166009091670020916200309133
S11302706300499714F5C9010E94510095BA0E9480
S1130280A80085BA0E94A5000E94A5000E94A500AE
S11302900E94A5000E94A5000E94A50095BA0E9494
S11302A0A5000E94AD0080916600909167000196C0
S11302B09093670080936600D4CF2F5F3F4F29301F
S11302C0310529F030936300209362007FCFB09210
S11302D06300A09262008091780090917900019669
S11302E0909379008093780071CF0130110529F43F
S11302F02196C830D10569F403C00230110549F4D0
S11303002197C130D10519F401E010E002C002E0E8
S113031010E08FEFE81AF80A4DCFDF91CF911F91CB
S11303200F91FF90EF90DF90CF90BF90AF909F9090
S11303308F907F900895EF92FF921F93CF93DF9356
S1130340C0E0D0E01FEFEE24E394F12C8091640030
S113035090916500C817D9076CF58091620090915F
S113036063000E94510015BB0E94A8000E94A500D2
S11303700E94A5000E94A50015BA0E94A5000E9433
S1130380A5000E94A5000E94A5000E94AD008091D6
S113039062009091630001968930910529F0909351
S11303A063008093620004C0F0926300E0926200F4
S11303B02196CCCFDF91CF911F91FF90EF900895BC
S11303C0FF920F931F93CF93DF93C0E0D0E0FF24FD
S11303D0FA9401E010E08091600090916100209116
S11303E0640030916500821B930BC817D9076CF524
S11303F080916200909163000E94510015BA0E949E
S1130400A8000E94A5000E94A5000E94A500F5BABC
S11304100E94A5000E94A5000E94A5000E94A500BC
S11304200E94AD0080916200909163000196893032
S1130430910529F0909363008093620004C01093A7
S11304406300009362002196C6CFDF91CF911F9184
S11304500F91FF9008952091600030916100809188
S11304606400909165008217930774F40E949B01C5
S11304700E94E0018091640090916500059690933C
S1130480650080936400E7CF80916A0090916B00CF
S1130490019790936B0080936A008091640090911F
S11304A065001816190674F40E949B010E94E0016D
S11304B08091640090916500059790936500809306
S11304C06400EBCF80917C0090917D000196909325
S11304D07D0080937C0020916A0030916B00232B77
S11304E031F42FEF30E030936B0020936A008F3F9C
S11304F0910531F481E090E090937D0080937C003D
S113050008958FEF8ABB84BB84E48BBB0E942B02CB
S111051086E190E00E94BD00F9CFF894FFCF81
S107051EF4010100DF
S9030000FC
